:0400000006EF00F017
:10000800C9EF03F000EE06F0080EF66E0F0EF76E5D
:100018000900F5CFEEFF056A046A036A026A016AFD
:10002800006A00EE60F014EE00F023EC00F005EE3C
:1000380000F0F40EEE6AE806FDE1DAEF01F0EE6A90
:10004800E550E150FCE1E250FAE112000900F5CF79
:10005800EEFFE550E150FAE1E250F8E11200D96A0A
:100068008984110433E1100E126E1206122872E010
:10007800600E186E000E196A0DC016F00EC017F04B
:10008800B4EC03F0400E0D26000E0E220FC013F044
:1000980010C014F0E16A600EE124E96EEA6A000E0D
:1000A800EA22EF50186E0FC016F010C017F0F0ECEF
:1000B80002F00F4A102AE12A3F0EE164ECD713C080
:1000C80016F014C017F0CBEC02F0CFD71150020A8B
:1000D80041E1100EE16EE106E1283CE0600E186E89
:1000E800000E196A0DC016F00EC017F0B4EC03F03C
:1000F800D96A600ED924E96EEA6A000EEA22EF5046
:10010800186E0FC016F010C017F0E5EC03F0050EDE
:10011800006E016A0150001002E00400FBD7600E77
:10012800D924E96EEA6A000EEA22EF50156E0FC074
:1001380016F010C017F0D9EC03F01518DAE10F4AE1
:10014800102A400E0D26000E0E22D92A3F0ED96421
:10015800D0D7C1D7899412000A6A096A020E086EBC
:1001680001D00A2A050103510A5C35E20A50040D40
:10017800040EF324E96E050EF420EA6EEF500F6EBC
:100188000A50040D060EF324E96E050EF420EA6EFB
:10019800EECF0DF0EDCF0EF027EC01F00DC00BF017
:1001A8000EC00CF00A50040D0501050EF324E96E8B
:1001B800050EF420EA6EEF500B18D3E00A50040D38
:1001C800040EF324E96E050EF420EA6EEF50020ADD
:1001D800C8E0010E096E0950D8B4120004EC04F00E
:1001E8000A6A050103510A5C28E2136A040E146EB8
:1001F8000AC011F0126A9EEC03F0000E11240D6E75
:10020800100E12200E6E0A50040D040EF324E96E2F
:10021800050EF420EA6EEF50116E0A50040D060E1A
:10022800F324E96E050EF420EA6EEECF0FF0EDCF61
:1002380010F033EC00F00A2AD4D7096A0806082817
:10024800D8B412008FD7010EE16ED96A89800F04E5
:100258002CE1106A116A0DC013F00EC014F012ECF4
:1002680003F0126E600E1024E96E000E1120EA6E83
:1002780012C0EFFF0D4A0E2A600E1024E96E000E20
:100288001120EA6EEF50D926600E1024E96E000E98
:100298001120EA6EEF1CD8A4E16A104A112A000E58
:1002A800105C040E11582DE2D6D70F50020A29E12E
:1002B800106A116A10C016F011C017F0D9EC03F0DB
:1002C800126E600E1024E96E000E1120EA6E12C044
:1002D800EFFF600E1024E96E000E1120EA6EEF5059
:1002E800D926600E1024E96E000E1120EA6EEF1C6C
:1002F800D8A4E16A104A112A000E105C040E1158A5
:10030800D9E38990E15004E0FE0E0D6E0E68FF0CF3
:10031800D9CF0DF00E6A120013C0F6FF14C0F7FF14
:10032800A68EA69CA684A688550EA76EAA0EA76EB2
:10033800A682A6B2FED7A694F46AF36A200ED96EF6
:10034800F650C00BF424F66ED906D9280BE0F3500A
:100358001124E96E000E1220EA6EEF50F56EF32AB2
:100368000D00F2D70A00A68EA69CA684550EA76E8D
:10037800AA0EA76EA682A6B2FED7A694200EF426D1
:100388003F0EF464DBD7C00EF616F36A0900F3508B
:100398001124E96E000E1220EA6EEF50F51801E004
:1003A800FF0CF32A3F0EF364F1D7000CA2EC02F025
:1003B800640E006E016A015000100EE00400FBD7C5
:1003C80089B002D0010E01D0000E076E89500718BF
:1003D800FE0B0718896E040010EC02F00009F0E02B
:1003E8008990F1EC03F0000902E181B40AD005011B
:1003F800006B036B016B026B85EC07F051EC03F0AB
:1004080006D034EC03F00009D8A4B0EC00F00DECF1
:1004180004F003000400FED7040ED96E938094986C
:10042800948681A0000C27D093908A900F0E006EBE
:10043800016A0150001002E00400FBD7AC0E6CEC1E
:1004480003F0026E530E6CEC03F0036E000E6CECBE
:1004580003F0046E000E6CEC03F0056E0F0E006ED8
:10046800016A0150001002E00400FBD70450530A4F
:1004780001E1010C9380D906D928D6E1000CAC0E15
:100488006CEC03F0026E800E6CEC03F0036E000E51
:100498006CEC03F0046E000E6CEC03F0056E0A0EB3
:1004A800006E016A0150001002E00400FBD7050E3F
:1004B800E96EE906E928D8B412009380050E006EAB
:1004C800016A0150001002E00400FBD793908A9063
:1004D800050E006E016A01500010EBE00400FBD726
:1004E800E8CFD9FF136A040E146ED9CF11F0126A3F
:1004F8009EEC03F0000E11240E6E100E12200F6EEB
:10050800600EE16E000EE26A0D6A106A0EC013F00A
:100518000FC014F0E1CF11F0E2CF12F090EC01F02F
:100528000D12400EE126000EE222400E0E26000EAD
:100538000F22102A0F0E1064E9D70F0C700ED31279
:10054800926A7E6A7F6A949893909396948693842D
:1005580093827D689E6AA16A200EF26EF19E920EC9
:10056800D56E260EAC6E900EAB6E080EB86E010EF0
:10057800086E040E082608C0F6FF0F0EF76E000E70
:10058800F86E0800F5CFAFFFF28EF28C12004C0E19
:100598006CEC03F016C018F017C019F0090E1A6EAB
:1005A800D890193218321A2EFBD718506CEC03F079
:1005B800D8901730196E1630186E18506CEC03F07E
:1005C800000E6CEC03F0050E006E016A015000107D
:1005D800D8B412000400FAD7400E196E16A002D043
:1005E800480E196E19506CEC03F016C01AF017C0BB
:1005F8001BF0090E1C6ED8901B321A321C2EFBD72A
:100608001A506CEC03F0D89017301B6E16301A6E27
:100618001A506CEC03F018506CEF03F0200E156EB6
:1006280013A002D0280E156E15506CEC03F013C001
:1006380016F014C017F0090E186ED890173216323B
:10064800182EFBD716506CEC03F0D8901430176EA8
:100658001330166E16506CEC03F0000E6CEF03F0BE
:10066800E96A0501E16A050EE26ED96AD9CF09F097
:100678000A6AFBEC03F0E76EE750E926E652D92A4E
:10068800F30ED964F3D7F40E096E000E0A6AFBEC78
:1006980003F0E91801E1010C000CE96A0501E16ABF
:1006A800050EE26ED96AE750E926E7500A6ED9CFFF
:1006B80008F0096A87EC03F0E652D92AF30ED964E8
:1006C800F2D7E9CF0AF0F40E086E096A87EF03F053
:1006D800E8CFF3FF080EF46EE96AF406F42811E097
:1006E800F3AE02D08B8801D08B98D890F3368A86E7
:1006F800D890E9368230E832E832010BE9128A965E
:10070800ECD7E9501200A6B2FED708C0A9FF0AC06C
:10071800A8FF3F0EA616D890F2BED880F29EA684F7
:10072800550EA76EAA0EA76EA682A198A694D8B059
:10073800F28EAA0CF36AF46A11A004D01350F326BF
:100748001450F422D89013361436D890123211323D
:1007580012501110F1E1F3CF11F0F4CF12F01200A2
:1007680016C0F6FF17C0F7FFC00EF616D96A0900C3
:1007780018C0E9FF19C0EAFFF5CFEFFF184A192A98
:10078800D92A3F0ED964F3D73F0CF2B4F2AA11006C
:100798000C0ED66EFE0ED76EF29401500010D8B42F
:1007A80011000006D8A001061100A00E6CEC03F0A1
:1007B80017506CEC03F016506CEC03F0000E6CEF65
:1007C80003F0C00E6CEC03F017506CEC03F01650FD
:1007D8006CEC03F018506CEF03F0000E096A0A6A1B
:1007E800FBEC03F0086E082801E1010C000CA6B22E
:1007F800FED709C0A9FF3F0EA616A680A850120072
:1008080043EC02F010EC02F00009D8A41200040036
:0A081800F9D79380948894861200AB
:100F000000CF0044002200002000086A096A0A6A33
:100F1000010E0F6E09C00DF00AC00EF027EC01F0B3
:100F20000DC00BF00EC00CF00C28FE0ED8B40B1840
:100F30002BE005010351040D060EF324E96E050EA6
:100F4000F420EA6E09C0EEFF0AC0EDFF0351040D64
:100F5000050EF324E96E050EF420EA6E0BC0EFFFD8
:100F60000351040D040EF324E96E050EF420EA6E1D
:100F7000010EEF6E035174EC02F0050105EE03F073
:100F8000EF2A3C0EEF6400D0040E0A26082A1F0E3A
:100F90000864BED7640E006E016A0150001002E0C2
:100FA0000400FBD7020E0F6E000E0D6A0E6A27ECCE
:100FB00001F00DC00BF00EC00CF00C28FE0ED8B4E2
:100FC0000B18D8B4120005010351040D050EF324CB
:100FD000E96E050EF420EA6E0BC0EFFF0351040D1D
:100FE000040EF324E96E050EF420EA6E020EEF6E95
:0C0FF000035174EC02F00501032B120009
:020000040030CA
:0A000000FF48121FFF0881FF0FC028
:00000001FF
